{
  "_format": "hh-sol-artifact-1",
  "contractName": "VoterRegistry",
  "sourceName": "contracts/VoterRegistry.sol",
  "abi": [
    {
      "inputs": [],
      "stateMutability": "nonpayable",
      "type": "constructor"
    },
    {
      "anonymous": false,
      "inputs": [
        {
          "indexed": true,
          "internalType": "address",
          "name": "voterAddress",
          "type": "address"
        },
        {
          "indexed": false,
          "internalType": "string",
          "name": "nim",
          "type": "string"
        },
        {
          "indexed": false,
          "internalType": "string",
          "name": "name",
          "type": "string"
        },
        {
          "indexed": false,
          "internalType": "enum VoterRegistry.Role",
          "name": "role",
          "type": "uint8"
        }
      ],
      "name": "VoterRegistered",
      "type": "event"
    },
    {
      "anonymous": false,
      "inputs": [
        {
          "indexed": true,
          "internalType": "address",
          "name": "voterAddress",
          "type": "address"
        },
        {
          "indexed": false,
          "internalType": "string",
          "name": "nim",
          "type": "string"
        }
      ],
      "name": "VoterRemoved",
      "type": "event"
    },
    {
      "anonymous": false,
      "inputs": [
        {
          "indexed": true,
          "internalType": "address",
          "name": "voterAddress",
          "type": "address"
        },
        {
          "indexed": false,
          "internalType": "enum VoterRegistry.Role",
          "name": "oldRole",
          "type": "uint8"
        },
        {
          "indexed": false,
          "internalType": "enum VoterRegistry.Role",
          "name": "newRole",
          "type": "uint8"
        }
      ],
      "name": "VoterRoleUpdated",
      "type": "event"
    },
    {
      "inputs": [
        {
          "internalType": "address[]",
          "name": "_addresses",
          "type": "address[]"
        },
        {
          "internalType": "string[]",
          "name": "_nims",
          "type": "string[]"
        },
        {
          "internalType": "string[]",
          "name": "_names",
          "type": "string[]"
        },
        {
          "internalType": "enum VoterRegistry.Role[]",
          "name": "_roles",
          "type": "uint8[]"
        }
      ],
      "name": "batchRegisterVoters",
      "outputs": [],
      "stateMutability": "nonpayable",
      "type": "function"
    },
    {
      "inputs": [
        {
          "internalType": "string",
          "name": "_nim",
          "type": "string"
        }
      ],
      "name": "getAddressByNim",
      "outputs": [
        {
          "internalType": "address",
          "name": "",
          "type": "address"
        }
      ],
      "stateMutability": "view",
      "type": "function"
    },
    {
      "inputs": [],
      "name": "getAllVoterAddresses",
      "outputs": [
        {
          "internalType": "address[]",
          "name": "",
          "type": "address[]"
        }
      ],
      "stateMutability": "view",
      "type": "function"
    },
    {
      "inputs": [
        {
          "internalType": "address",
          "name": "_address",
          "type": "address"
        }
      ],
      "name": "getVoterByAddress",
      "outputs": [
        {
          "components": [
            {
              "internalType": "string",
              "name": "nim",
              "type": "string"
            },
            {
              "internalType": "string",
              "name": "name",
              "type": "string"
            },
            {
              "internalType": "enum VoterRegistry.Role",
              "name": "role",
              "type": "uint8"
            },
            {
              "internalType": "bool",
              "name": "isRegistered",
              "type": "bool"
            },
            {
              "internalType": "uint256",
              "name": "registeredAt",
              "type": "uint256"
            }
          ],
          "internalType": "struct VoterRegistry.Voter",
          "name": "",
          "type": "tuple"
        }
      ],
      "stateMutability": "view",
      "type": "function"
    },
    {
      "inputs": [
        {
          "internalType": "string",
          "name": "_nim",
          "type": "string"
        }
      ],
      "name": "getVoterByNim",
      "outputs": [
        {
          "components": [
            {
              "internalType": "string",
              "name": "nim",
              "type": "string"
            },
            {
              "internalType": "string",
              "name": "name",
              "type": "string"
            },
            {
              "internalType": "enum VoterRegistry.Role",
              "name": "role",
              "type": "uint8"
            },
            {
              "internalType": "bool",
              "name": "isRegistered",
              "type": "bool"
            },
            {
              "internalType": "uint256",
              "name": "registeredAt",
              "type": "uint256"
            }
          ],
          "internalType": "struct VoterRegistry.Voter",
          "name": "",
          "type": "tuple"
        }
      ],
      "stateMutability": "view",
      "type": "function"
    },
    {
      "inputs": [],
      "name": "getVoterCount",
      "outputs": [
        {
          "internalType": "uint256",
          "name": "",
          "type": "uint256"
        }
      ],
      "stateMutability": "view",
      "type": "function"
    },
    {
      "inputs": [
        {
          "internalType": "address",
          "name": "_address",
          "type": "address"
        }
      ],
      "name": "getVoterRole",
      "outputs": [
        {
          "internalType": "enum VoterRegistry.Role",
          "name": "",
          "type": "uint8"
        }
      ],
      "stateMutability": "view",
      "type": "function"
    },
    {
      "inputs": [
        {
          "internalType": "address",
          "name": "_address",
          "type": "address"
        }
      ],
      "name": "isRegistered",
      "outputs": [
        {
          "internalType": "bool",
          "name": "",
          "type": "bool"
        }
      ],
      "stateMutability": "view",
      "type": "function"
    },
    {
      "inputs": [
        {
          "internalType": "string",
          "name": "",
          "type": "string"
        }
      ],
      "name": "nimToAddress",
      "outputs": [
        {
          "internalType": "address",
          "name": "",
          "type": "address"
        }
      ],
      "stateMutability": "view",
      "type": "function"
    },
    {
      "inputs": [],
      "name": "owner",
      "outputs": [
        {
          "internalType": "address",
          "name": "",
          "type": "address"
        }
      ],
      "stateMutability": "view",
      "type": "function"
    },
    {
      "inputs": [
        {
          "internalType": "address",
          "name": "_voterAddress",
          "type": "address"
        },
        {
          "internalType": "string",
          "name": "_nim",
          "type": "string"
        },
        {
          "internalType": "string",
          "name": "_name",
          "type": "string"
        },
        {
          "internalType": "enum VoterRegistry.Role",
          "name": "_role",
          "type": "uint8"
        }
      ],
      "name": "registerVoter",
      "outputs": [],
      "stateMutability": "nonpayable",
      "type": "function"
    },
    {
      "inputs": [
        {
          "internalType": "address",
          "name": "_voterAddress",
          "type": "address"
        }
      ],
      "name": "removeVoter",
      "outputs": [],
      "stateMutability": "nonpayable",
      "type": "function"
    },
    {
      "inputs": [],
      "name": "totalVoters",
      "outputs": [
        {
          "internalType": "uint256",
          "name": "",
          "type": "uint256"
        }
      ],
      "stateMutability": "view",
      "type": "function"
    },
    {
      "inputs": [
        {
          "internalType": "address",
          "name": "_voterAddress",
          "type": "address"
        },
        {
          "internalType": "enum VoterRegistry.Role",
          "name": "_newRole",
          "type": "uint8"
        }
      ],
      "name": "updateVoterRole",
      "outputs": [],
      "stateMutability": "nonpayable",
      "type": "function"
    },
    {
      "inputs": [
        {
          "internalType": "uint256",
          "name": "",
          "type": "uint256"
        }
      ],
      "name": "voterAddresses",
      "outputs": [
        {
          "internalType": "address",
          "name": "",
          "type": "address"
        }
      ],
      "stateMutability": "view",
      "type": "function"
    },
    {
      "inputs": [
        {
          "internalType": "address",
          "name": "",
          "type": "address"
        }
      ],
      "name": "voters",
      "outputs": [
        {
          "internalType": "string",
          "name": "nim",
          "type": "string"
        },
        {
          "internalType": "string",
          "name": "name",
          "type": "string"
        },
        {
          "internalType": "enum VoterRegistry.Role",
          "name": "role",
          "type": "uint8"
        },
        {
          "internalType": "bool",
          "name": "isRegistered",
          "type": "bool"
        },
        {
          "internalType": "uint256",
          "name": "registeredAt",
          "type": "uint256"
        }
      ],
      "stateMutability": "view",
      "type": "function"
    }
  ],
  "bytecode": "0x608060405234801561001057600080fd5b50600080546001600160a01b03191633179055611e9f806100326000396000f3fe608060405234801561001057600080fd5b50600436106101005760003560e01c8063bb3b504e11610097578063d43f27f611610066578063d43f27f61461025c578063dd0e23731461026f578063e294f96414610282578063ef16d8e91461029557600080fd5b8063bb3b504e146101dc578063c3c5a547146101ef578063cd174af714610234578063cea04b001461024757600080fd5b80635f5300ff116100d35780635f5300ff1461017157806386c1ff681461017a5780638da5cb5b1461018d578063a3ec138d146101b857600080fd5b806311174a2914610105578063401c14941461011c5780634928a0c91461013c5780634bdd758514610151575b600080fd5b6001545b6040519081526020015b60405180910390f35b61012f61012a366004611608565b6102c9565b6040516101139190611662565b61014f61014a36600461167f565b610361565b005b61016461015f366004611608565b610489565b6040516101139190611702565b61010960015481565b61014f610188366004611608565b6106c7565b6000546101a0906001600160a01b031681565b6040516001600160a01b039091168152602001610113565b6101cb6101c6366004611608565b6108d3565b604051610113959493929190611771565b61014f6101ea36600461198a565b610a18565b6102246101fd366004611608565b6001600160a01b031660009081526002602081905260409091200154610100900460ff1690565b6040519015158152602001610113565b61014f610242366004611a93565b610e6f565b61024f611241565b6040516101139190611b18565b61016461026a366004611b65565b6112a3565b6101a061027d366004611ba2565b6114eb565b6101a0610290366004611b65565b611515565b6101a06102a3366004611b65565b80516020818301810180516003825292820191909301209152546001600160a01b031681565b6001600160a01b038116600090815260026020819052604082200154610100900460ff1661033e5760405162461bcd60e51b815260206004820152601e60248201527f566f74657252656769737472793a20766f746572206e6f7420666f756e64000060448201526064015b60405180910390fd5b506001600160a01b03166000908152600260208190526040909120015460ff1690565b6000546001600160a01b031633148061039f575033600090815260026020819052604090912081015460ff168181111561039d5761039d61162a565b145b6103bb5760405162461bcd60e51b815260040161033590611bbb565b6001600160a01b03821660009081526002602081905260409091200154610100900460ff166103fc5760405162461bcd60e51b815260040161033590611c00565b6001600160a01b03821660009081526002602081905260409091208101805460ff81169284929160ff191690600190849081111561043c5761043c61162a565b0217905550826001600160a01b03167f0954e6c5731f4c5fd2db352127c222bb9c7a77f83dd9b7531f14bf552691a93d828460405161047c929190611c43565b60405180910390a2505050565b6104b96040805160a081018252606080825260208201529081016000815260006020820181905260409091015290565b6001600160a01b03821660009081526002602081905260409091200154610100900460ff1661052a5760405162461bcd60e51b815260206004820152601e60248201527f566f74657252656769737472793a20766f746572206e6f7420666f756e6400006044820152606401610335565b6001600160a01b03821660009081526002602052604090819020815160a0810190925280548290829061055c90611c5e565b80601f016020809104026020016040519081016040528092919081815260200182805461058890611c5e565b80156105d55780601f106105aa576101008083540402835291602001916105d5565b820191906000526020600020905b8154815290600101906020018083116105b857829003601f168201915b505050505081526020016001820180546105ee90611c5e565b80601f016020809104026020016040519081016040528092919081815260200182805461061a90611c5e565b80156106675780601f1061063c57610100808354040283529160200191610667565b820191906000526020600020905b81548152906001019060200180831161064a57829003601f168201915b505050918352505060028281015460209092019160ff169081111561068e5761068e61162a565b600281111561069f5761069f61162a565b81526002820154610100900460ff161515602082015260039091015460409091015292915050565b6000546001600160a01b0316331480610705575033600090815260026020819052604090912081015460ff16818111156107035761070361162a565b145b6107215760405162461bcd60e51b815260040161033590611bbb565b6001600160a01b03811660009081526002602081905260409091200154610100900460ff166107625760405162461bcd60e51b815260040161033590611c00565b6001600160a01b0381166000908152600260205260408120805461078590611c5e565b80601f01602080910402602001604051908101604052809291908181526020018280546107b190611c5e565b80156107fe5780601f106107d3576101008083540402835291602001916107fe565b820191906000526020600020905b8154815290600101906020018083116107e157829003601f168201915b505050505090506003816040516108159190611c98565b908152604080516020928190038301902080546001600160a01b03191690556001600160a01b038416600090815260029092528120906108558282611596565b610863600183016000611596565b5060028101805461ffff1916905560006003909101819055600180549161088983611cca565b9190505550816001600160a01b03167fac555897e39fd77481cd8086c109b39288672424a681cfcdf7ce4069ae6c98df826040516108c79190611ce1565b60405180910390a25050565b6002602052600090815260409020805481906108ee90611c5e565b80601f016020809104026020016040519081016040528092919081815260200182805461091a90611c5e565b80156109675780601f1061093c57610100808354040283529160200191610967565b820191906000526020600020905b81548152906001019060200180831161094a57829003601f168201915b50505050509080600101805461097c90611c5e565b80601f01602080910402602001604051908101604052809291908181526020018280546109a890611c5e565b80156109f55780601f106109ca576101008083540402835291602001916109f5565b820191906000526020600020905b8154815290600101906020018083116109d857829003601f168201915b505050506002830154600390930154919260ff8082169361010090920416915085565b6000546001600160a01b0316331480610a56575033600090815260026020819052604090912081015460ff1681811115610a5457610a5461162a565b145b610a725760405162461bcd60e51b815260040161033590611bbb565b82518451148015610a84575081518351145b8015610a91575080518251145b610aeb5760405162461bcd60e51b815260206004820152602560248201527f566f74657252656769737472793a20617272617973206c656e677468206d69736044820152640dac2e8c6d60db1b6064820152608401610335565b60005b8451811015610e685760026000868381518110610b0d57610b0d611cf4565b60200260200101516001600160a01b03166001600160a01b0316815260200190815260200160002060020160019054906101000a900460ff16158015610b9d575060006001600160a01b03166003858381518110610b6d57610b6d611cf4565b6020026020010151604051610b829190611c98565b908152604051908190036020019020546001600160a01b0316145b15610e60576040518060a00160405280858381518110610bbf57610bbf611cf4565b60200260200101518152602001848381518110610bde57610bde611cf4565b60200260200101518152602001838381518110610bfd57610bfd611cf4565b60200260200101516002811115610c1657610c1661162a565b81526020016001151581526020014281525060026000878481518110610c3e57610c3e611cf4565b6020908102919091018101516001600160a01b0316825281019190915260400160002081518190610c6f9082611d5b565b5060208201516001820190610c849082611d5b565b5060408201518160020160006101000a81548160ff02191690836002811115610caf57610caf61162a565b021790555060608201516002820180549115156101000261ff00199092169190911790556080909101516003909101558451859082908110610cf357610cf3611cf4565b60200260200101516003858381518110610d0f57610d0f611cf4565b6020026020010151604051610d249190611c98565b908152602001604051809103902060006101000a8154816001600160a01b0302191690836001600160a01b031602179055506004858281518110610d6a57610d6a611cf4565b60209081029190910181015182546001808201855560009485529284200180546001600160a01b0319166001600160a01b03909216919091179055805491610db183611e1b565b9190505550848181518110610dc857610dc8611cf4565b60200260200101516001600160a01b03167f9ea2620d388f5b896d68823abc9051abd22535a085b8c1d9bb5bd2998fb61082858381518110610e0c57610e0c611cf4565b6020026020010151858481518110610e2657610e26611cf4565b6020026020010151858581518110610e4057610e40611cf4565b6020026020010151604051610e5793929190611e34565b60405180910390a25b600101610aee565b5050505050565b6000546001600160a01b0316331480610ead575033600090815260026020819052604090912081015460ff1681811115610eab57610eab61162a565b145b610ec95760405162461bcd60e51b815260040161033590611bbb565b6001600160a01b03841660009081526002602081905260409091200154610100900460ff1615610f4b5760405162461bcd60e51b815260206004820152602760248201527f566f74657252656769737472793a20766f74657220616c7265616479207265676044820152661a5cdd195c995960ca1b6064820152608401610335565b6000835111610fa75760405162461bcd60e51b815260206004820152602260248201527f566f74657252656769737472793a204e494d2063616e6e6f7420626520656d70604482015261747960f01b6064820152608401610335565b60008251116110045760405162461bcd60e51b815260206004820152602360248201527f566f74657252656769737472793a206e616d652063616e6e6f7420626520656d60448201526270747960e81b6064820152608401610335565b60006001600160a01b031660038460405161101f9190611c98565b908152604051908190036020019020546001600160a01b0316146110935760405162461bcd60e51b815260206004820152602560248201527f566f74657252656769737472793a204e494d20616c72656164792072656769736044820152641d195c995960da1b6064820152608401610335565b6040518060a001604052808481526020018381526020018260028111156110bc576110bc61162a565b81526001602080830191909152426040928301526001600160a01b0387166000908152600290915220815181906110f39082611d5b565b50602082015160018201906111089082611d5b565b5060408201518160020160006101000a81548160ff021916908360028111156111335761113361162a565b021790555060608201516002820180549115156101000261ff0019909216919091179055608090910151600391820155604051859190611174908690611c98565b90815260405190819003602001902080546001600160a01b039283166001600160a01b031991821617909155600480546001818101835560009283527f8a35acfbc15ff81a39ae7d344fd709f28e8600b4aa8c65c6b64bfe7fe36bd19b90910180549489169490931693909317909155815491906111f183611e1b565b9190505550836001600160a01b03167f9ea2620d388f5b896d68823abc9051abd22535a085b8c1d9bb5bd2998fb6108284848460405161123393929190611e34565b60405180910390a250505050565b6060600480548060200260200160405190810160405280929190818152602001828054801561129957602002820191906000526020600020905b81546001600160a01b0316815260019091019060200180831161127b575b5050505050905090565b6112d36040805160a081018252606080825260208201529081016000815260006020820181905260409091015290565b60006003836040516112e59190611c98565b908152604051908190036020019020546001600160a01b031690508061134d5760405162461bcd60e51b815260206004820152601c60248201527f566f74657252656769737472793a204e494d206e6f7420666f756e64000000006044820152606401610335565b6001600160a01b03811660009081526002602052604090819020815160a0810190925280548290829061137f90611c5e565b80601f01602080910402602001604051908101604052809291908181526020018280546113ab90611c5e565b80156113f85780601f106113cd576101008083540402835291602001916113f8565b820191906000526020600020905b8154815290600101906020018083116113db57829003601f168201915b5050505050815260200160018201805461141190611c5e565b80601f016020809104026020016040519081016040528092919081815260200182805461143d90611c5e565b801561148a5780601f1061145f5761010080835404028352916020019161148a565b820191906000526020600020905b81548152906001019060200180831161146d57829003601f168201915b505050918352505060028281015460209092019160ff16908111156114b1576114b161162a565b60028111156114c2576114c261162a565b81526002820154610100900460ff16151560208201526003909101546040909101529392505050565b600481815481106114fb57600080fd5b6000918252602090912001546001600160a01b0316905081565b6000806003836040516115289190611c98565b908152604051908190036020019020546001600160a01b03169050806115905760405162461bcd60e51b815260206004820152601c60248201527f566f74657252656769737472793a204e494d206e6f7420666f756e64000000006044820152606401610335565b92915050565b5080546115a290611c5e565b6000825580601f106115b2575050565b601f0160209004906000526020600020908101906115d091906115d3565b50565b5b808211156115e857600081556001016115d4565b5090565b80356001600160a01b038116811461160357600080fd5b919050565b60006020828403121561161a57600080fd5b611623826115ec565b9392505050565b634e487b7160e01b600052602160045260246000fd5b6003811061165e57634e487b7160e01b600052602160045260246000fd5b9052565b602081016115908284611640565b80356003811061160357600080fd5b6000806040838503121561169257600080fd5b61169b836115ec565b91506116a960208401611670565b90509250929050565b60005b838110156116cd5781810151838201526020016116b5565b50506000910152565b600081518084526116ee8160208601602086016116b2565b601f01601f19169290920160200192915050565b602081526000825160a0602084015261171e60c08401826116d6565b90506020840151601f1984830301604085015261173b82826116d6565b91505060408401516117506060850182611640565b50606084015115156080840152608084015160a08401528091505092915050565b60a08152600061178460a08301886116d6565b828103602084015261179681886116d6565b9150506117a66040830186611640565b9215156060820152608001529392505050565b634e487b7160e01b600052604160045260246000fd5b604051601f8201601f1916810167ffffffffffffffff811182821017156117f8576117f86117b9565b604052919050565b600067ffffffffffffffff82111561181a5761181a6117b9565b5060051b60200190565b600082601f83011261183557600080fd5b813567ffffffffffffffff81111561184f5761184f6117b9565b611862601f8201601f19166020016117cf565b81815284602083860101111561187757600080fd5b816020850160208301376000918101602001919091529392505050565b600082601f8301126118a557600080fd5b813560206118ba6118b583611800565b6117cf565b82815260059290921b840181019181810190868411156118d957600080fd5b8286015b8481101561191957803567ffffffffffffffff8111156118fd5760008081fd5b61190b8986838b0101611824565b8452509183019183016118dd565b509695505050505050565b600082601f83011261193557600080fd5b813560206119456118b583611800565b8083825260208201915060208460051b87010193508684111561196757600080fd5b602086015b848110156119195761197d81611670565b835291830191830161196c565b600080600080608085870312156119a057600080fd5b843567ffffffffffffffff808211156119b857600080fd5b818701915087601f8301126119cc57600080fd5b813560206119dc6118b583611800565b82815260059290921b8401810191818101908b8411156119fb57600080fd5b948201945b83861015611a2057611a11866115ec565b82529482019490820190611a00565b98505088013592505080821115611a3657600080fd5b611a4288838901611894565b94506040870135915080821115611a5857600080fd5b611a6488838901611894565b93506060870135915080821115611a7a57600080fd5b50611a8787828801611924565b91505092959194509250565b60008060008060808587031215611aa957600080fd5b611ab2856115ec565b9350602085013567ffffffffffffffff80821115611acf57600080fd5b611adb88838901611824565b94506040870135915080821115611af157600080fd5b50611afe87828801611824565b925050611b0d60608601611670565b905092959194509250565b6020808252825182820181905260009190848201906040850190845b81811015611b595783516001600160a01b031683529284019291840191600101611b34565b50909695505050505050565b600060208284031215611b7757600080fd5b813567ffffffffffffffff811115611b8e57600080fd5b611b9a84828501611824565b949350505050565b600060208284031215611bb457600080fd5b5035919050565b60208082526025908201527f566f74657252656769737472793a2063616c6c6572206973206e6f7420616e2060408201526430b236b4b760d91b606082015260800190565b60208082526023908201527f566f74657252656769737472793a20766f746572206e6f7420726567697374656040820152621c995960ea1b606082015260800190565b60408101611c518285611640565b6116236020830184611640565b600181811c90821680611c7257607f821691505b602082108103611c9257634e487b7160e01b600052602260045260246000fd5b50919050565b60008251611caa8184602087016116b2565b9190910192915050565b634e487b7160e01b600052601160045260246000fd5b600081611cd957611cd9611cb4565b506000190190565b60208152600061162360208301846116d6565b634e487b7160e01b600052603260045260246000fd5b601f821115611d56576000816000526020600020601f850160051c81016020861015611d335750805b601f850160051c820191505b81811015611d5257828155600101611d3f565b5050505b505050565b815167ffffffffffffffff811115611d7557611d756117b9565b611d8981611d838454611c5e565b84611d0a565b602080601f831160018114611dbe5760008415611da65750858301515b600019600386901b1c1916600185901b178555611d52565b600085815260208120601f198616915b82811015611ded57888601518255948401946001909101908401611dce565b5085821015611e0b5787850151600019600388901b60f8161c191681555b5050505050600190811b01905550565b600060018201611e2d57611e2d611cb4565b5060010190565b606081526000611e4760608301866116d6565b8281036020840152611e5981866116d6565b915050611b9a604083018461164056fea264697066735822122047afe3c049d53c74047ccbb6e0a5bcda1e6b9fb6c22b28213be9066d566a946964736f6c63430008180033",
  "linkReferences": {},
  "deployedLinkReferences": {}
}